:020000040000FA
:040000000EEF09F006
:0D080000002578200025782D0025780000C7
:10080E000001AFBF0DEF04F00FEF04F010EF04F096
:10081E00B093AFBF1DEF04F0AF5106E1AE05D8B0F7
:10082E001BEF04F01DEF04F023EF04F0000E346E06
:10083E00010E336E27EF04F0AEC033F0AFC034F0CC
:10084E00ACC035F0ADC036F0B0A930EF04F032EFE9
:10085E0004F036EF04F0FE0E3526FF0E36221EC0D3
:10086E0037F01FC038F020C039F021C03AF022C056
:10087E003BF023C03CF024C03DF025C03EF0000EFE
:10088E00406E1F0E3F6E000EE26F01EF05F03F0649
:10089E00D8A040060F0E3714416E426A42BE61EF79
:1008AE0004F0425009E10A0E415CD8A061EF04F059
:1008BE0063EF04F06BEF04F0570E4124416E000E0F
:1008CE004220426E71EF04F0300E4124416E000E54
:1008DE004220426EBF0E276EFF0E286E2650296EE6
:1008EE002A6A2750292628502A222A500AE11A0E4F
:1008FE00295CD8A085EF04F088EF04F0010E89EF93
:10090E0004F0000E2F6E306A2F503010D8B492EFD4
:10091E0004F094EF04F0C4EF04F09F0E276EFF0E68
:10092E00286E200E4110296E000E42102A6E27509E
:10093E00292628502A222A500AE11A0E295CD8A00C
:10094E00ABEF04F0AEEF04F0010EAFEF04F0000ECB
:10095E00316E326A31503210D8B4B8EF04F0BAEFBB
:10096E0004F0C4EF04F041C007F042C008F026ECDA
:10097E0008F007C041F008C042F0C30E3F24D96E04
:10098E00000E4020DA6E41C0DFFF3306D8A03406D9
:10099E003506D8A0360637C027F038C028F039C043
:1009AE0029F03AC02AF03BC02BF03CC02CF03DC0E1
:1009BE002DF03EC02EF0050EEEEF04F0D8902E3244
:1009CE002D322C322B322A32293228322732E82E7F
:1009DE00E5EF04F027C037F028C038F029C039F011
:1009EE002AC03AF02BC03BF02CC03CF02DC03DF09D
:1009FE002EC03EF040BE0DEF05F0405009E1020E54
:100A0E003F5CD8A00DEF05F00FEF05F040EF05F0BD
:100A1E003750381039103A103B103C103D103E1034
:100A2E00D8A41CEF05F01EEF05F04EEF04F034BE17
:100A3E002BEF05F0345006E13304D8B029EF05F062
:100A4E002BEF05F04EEF04F036BE36EF05F03650C4
:100A5E0008E13504D8A036EF05F038EF05F040EF89
:100A6E0005F00001B0B33EEF05F040EF05F04EEF9C
:100A7E0004F00001B0A946EF05F048EF05F05EEF77
:100A8E0005F03F06D8A04006C30E3F24D96E000ED7
:100A9E004020DA6E26C0DFFF3F06D8A04006C30E08
:100AAE003F24D96E000E4020DA6E300EDF6E1CC071
:100ABE0011F01DC012F0C30E3F24136E000E402025
:100ACE00146E35C015F036C016F092EC07F011C05A
:100ADE001CF012C01DF0120045C0D9FF46C0DAFF4F
:100AEE00DECFF6FFDDCFF7FF0800F550250AD8A4BC
:100AFE0083EF05F085EF05F03FEF06F045C0D9FF17
:100B0E0046C0DAFFDE2A000EDD22000E0001AD6FB8
:100B1E00000EAC6FACC0B0F0ADC0B1F0AE69AF6955
:100B2E0045C0D9FF46C0DAFFDECFF6FFDDCFF7FFB7
:100B3E000800F550780AD8B4A7EF05F0A9EF05F034
:100B4E00BBEF05F045C0D9FF46C0DAFFDECFF6FF9A
:100B5E00DDCFF7FF0800F550580AD8A4B9EF05F01D
:100B6E00BBEF05F009EF06F045C0D9FF46C0DAFF2E
:100B7E00DECFF6FFDDCFF7FF0800F5CF55F045C00D
:100B8E00D9FF46C0DAFFDE2A000EDD2247C0D9FFAC
:100B9E0048C0DAFFDFCF49F0020EDE26DFCF4AF083
:100BAE00000EDD2249C0D9FF4AC0DAFFDECF4BF07E
:100BBE00DDCF4CF04BC04DF04CC04EF04F6A506A3A
:100BCE00516A526A536A546A43C01CF044C01DF005
:100BDE004DC01EF04EC01FF04FC020F050C021F08F
:100BEE0051C022F052C023F053C024F054C025F05F
:100BFE0055C026F007EC04F01CC043F01DC044F0B5
:100C0E005AEF06F045C0D9FF46C0DAFFDECFF6FF39
:100C1E00DDCFF7FF0800F550250AD8A419EF06F02E
:100C2E001BEF06F032EF06F045C0D9FF46C0DAFFE3
:100C3E00DE2A000EDD22000E026E250E016E43C06E
:100C4E0003F044C004F02DEC07F0000E446E010ECC
:100C5E00436E5AEF06F045C0D9FF46C0DAFFDE2AD2
:100C6E00000EDD22000E446E000E436E5AEF06F0AB
:100C7E0045C0D9FF46C0DAFFDECFF6FFDDCFF7FF66
:100C8E000800F550016E026A43C003F044C004F040
:100C9E002DEC07F045C0D9FF46C0DAFFDE2A000E64
:100CAE00DD222CEF06F01200DAEC09F0700ED312F2
:100CBE00D350FC0B0209D36E949CAC9CAC8AAC98BE
:100CCE00AC94B896AB8E0C0EAF6E928293829382DA
:100CDE00C150F00B0E09C16ECF0EC116C30EC21657
:100CEE00C050C70B1009C06EC050F80B0109C06E82
:100CFE00C08EC280000EABEC08F0E7EC09F03F0EA0
:100D0E000001BA15BA6FBB6B8E0E606F000E616F6D
:100D1E00090E626F080E636FBCC064F0BDC065F053
:100D2E0082EC08F0980E0001606F000E616F090EE4
:100D3E00626F080E636FBAC064F0BBC065F082ECE0
:100D4E0008F098C0EDF099C0EEF03A0E0001EF6F8A
:100D5E008EC0F0F08FC0F1F0030E55EC08F0E7EC0A
:100D6E0009F0700E0001606F000E616F050E626F6C
:100D7E00080E636FB6C064F0B7C065F082EC08F081
:100D8E007A0E0001606F000E616F050E626F080E25
:100D9E00636FB4C064F0B5C065F082EC08F0840EE9
:100DAE000001606F000E616F010E626F080E636FBF
:100DBE00B2C064F0B3C065F082EC08F070C0E3F02E
:100DCE0071C0E4F07AC0E6F07BC0E7F084C0E9F0D1
:100DDE0085C0EAF080A2F6EF06F0F8EF06F0F1EF2C
:100DEE0006F0000E0001A56F000EA46FACA202EF7C
:100DFE0007F004EF07F0FDEF06F0E30E0001A42567
:100E0E00D96E000EA521DA6EDF50AD6EA44BA52B68
:100E1E00A5BF1BEF07F0A55109E1110EA45DD8A0E7
:100E2E001BEF07F01DEF07F0FDEF06F0020E5F6EF1
:100E3E00040E5E6EBA0EE82EFED75E2EFCD75F2E27
:100E4E00FAD700D0F1EF06F000EF00F003500410D7
:100E5E00D8B434EF07F036EF07F03FEF07F003504A
:100E6E000410D8A43DEF07F03FEF07F044EF07F072
:100E7E00015017EC0AF091EF07F020EE04F003504A
:100E8E00D9260450DA22DE50DE10D8B451EF07F026
:100E9E0053EF07F06EEF07F020EE04F00350D92663
:100EAE000450DA2210EE02F00350E1260450E22242
:100EBE00DE50E65CE650800A096EDE50800A095864
:100ECE00D8B06CEF07F06EEF07F091EF07F020EE61
:100EDE0002F00350D9260450DA22DECF05F0DDCF22
:100EEE0006F003C0D9FF04C0DAFFDECF07F0DDCF76
:100EFE0008F005500724D96E06500820DA6E01C09E
:100F0E00DFFF20EE02F00350D9260450DA22DE2A4B
:100F1E00000EDD2212000001B0A198EF07F09AEF4B
:100F2E0007F0A4EF07F013C00AF014C00BF011C0C5
:100F3E000CF012C00DF0CEEC08F016BEA9EF07F0C3
:100F4E00ABEF07F0B1EF07F015C01AF016C01BF0AB
:100F5E00B5EF07F0000E1B6E000E1A6E000E196E26
:100F6E00000E186EC7EF07F0000E026E200E016E17
:100F7E0011C003F012C004F02DEC07F0184A192A24
:100F8E001A50185C1950800A176E1B50800A175899
:100F9E00D8A0D4EF07F0D6EF07F0BBEF07F00001B3
:100FAE00B0B1DCEF07F0DEEF07F0E8EF07F013C0AB
:100FBE000AF014C00BF011C00CF012C00DF0CEEC04
:100FCE0008F013C001F014C002F080EC09F01A50C2
:100FDE000124116E1B500220126E120058C05CF0DC
:100FEE0059C05DF0000E0001AB6F000EAA6F13EF3B
:100FFE0008F056C043F057C044F05C0E456E000E2C
:10100E00466E5AC047F05BC048F073EC05F0435093
:10101E000001AA274450AB235CC0F6FF5DC0F7FF6A
:10102E000800F5500009D8A41FEF08F021EF08F0D2
:10103E0000EF08F0AAC056F0ABC057F012009F0E9A
:10104E00096EFF0E0A6E07C00BF008C00CF00950B7
:10105E000B260A500C220C500AE11A0E0B5CD8A07B
:10106E003BEF08F03EEF08F0010E3FEF08F0000EE8
:10107E000D6E0E6A0D500E10D8B448EF08F04AEF00
:10108E0008F050EF08F05F0E0714076E086A54EF71
:10109E0008F007C007F008C008F01200046ED00E6A
:1010AE009BEC09F00450C9EC09F0D10EB2EC09F03A
:1010BE00000E2BEC09F0036E03500001B86FB96BF4
:1010CE00000E2BEC09F0036E03500001B66FB76BE8
:1010DE00000E2BEC09F0036E03500001B46FB56BDC
:1010EE00010E2BEC09F0036E03500001B26FB36BCF
:1010FE00E7EC09F01200640E0001686F000E696FD4
:10110E0060C06AF061C06BF0000E6D6F000E6C6F08
:10111E00000E6F6F000E6E6F6A0E566E000E576EDB
:10112E0062C058F063C059F0680E5A6E000E5B6EC6
:10113E00F5EC07F000016C516025D96E6D516121FF
:10114E00DA6E000EDF6E1200046ED00E9BEC09F00C
:10115E000450C9EC09F0D10EB2EC09F0000E2BECE4
:10116E0009F0036E03500001BE6FBF6B000E2BEC37
:10117E0009F0036E03500001BC6FBD6B010E2BEC2A
:10118E0009F0036E03500001BA6FBB6B1200000E24
:10119E00106E000E0F6EDFEF08F00EC001F0026A47
:1011AE000CC003F00DC004F02DEC07F00F4A102A0E
:1011BE000F500A24D96E10500B20DA6EDF500E6ECF
:1011CE000E50D8A4EDEF08F0EFEF08F0D4EF08F0D2
:1011DE0012009F0E036EFF0E046E200E0110056EA0
:1011EE00000E0210066E035005260450062206500D
:1011FE000AE11A0E055CD8A007EF09F00AEF09F014
:10120E00010E0BEF09F0000E016E026A12000A0EBB
:10121E00F66E140EF76E000EF86E00EEE3F010EEA2
:10122E0012F00900F5CFEEFFE550E150FAE100EEC5
:10123E00A6F03D0EEE6AE806FDE1000EF86E080E11
:10124E00F76E00015BEF06F0016EC586C7A032EFA8
:10125E0009F034EF09F02DEF09F0C9CF02F001507B
:10126E00D8A43CEF09F03EEF09F042EF09F0FBEC99
:10127E0009F044EF09F0F1EC09F00EEC0AF002501F
:10128E0012009F0E036EFF0E046E01C005F002C029
:10129E0006F0035005260450062206500AE11A0EE7
:1012AE00055CD8A05DEF09F060EF09F0010E61EF6B
:1012BE0009F0000E016E026A1200BF0E036EFF0EE1
:1012CE00046E01C005F002C006F00350052604505E
:1012DE00062206500AE11A0E055CD8A079EF09F035
:1012EE007CEF09F0010E7DEF09F0000E016E026A2F
:1012FE00120001C003F002C004F088EF09F0014AA9
:10130E00022A01C0D9FF02C0DAFFDF50D8A492EF43
:10131E0009F094EF09F086EF09F00350015C016EBD
:10132E0004500258026E1200026EC580C5B0A2EFC4
:10133E0009F0A4EF09F09DEF09F09E96C7B6AAEF4B
:10134E0009F0ACEF09F0AEEF09F0B1EF09F0025081
:10135E00C9EC09F01200026EC582C5B2B9EF09F0F0
:10136E00BBEF09F0B4EF09F09E96C7B6C1EF09F0D6
:10137E00C3EF09F0C5EF09F0C8EF09F00250C9EC50
:10138E0009F01200016E01C0C9FF0EEC0AF0C5ACE7
:10139E00D3EF09F0D5EF09F0D8EF09F0010ED9EF30
:1013AE0009F0020E120093809382500EC76E280E23
:1013BE00C66E000EC56E130EC86E9D869E961200EA
:1013CE00C584C5B4EDEF09F0EFEF09F0E8EF09F0D1
:1013DE00C7501200C58AC588C5B8F8EF09F0FAEFF4
:1013EE0009F0F3EF09F01200C59AC588C5B802EFEF
:1013FE000AF004EF0AF0FDEF09F012002D2D2D2D4D
:10140E002D2D202020203A3A202020200D009EA6AF
:10141E0013EF0AF015EF0AF00EEF0AF09E96120087
:02142E001200AA
:020000040020DA
:08000000FFFFFFFFFFFFFFFF00
:020000040030CA
:0E0000000008181EFF0181FF0FC00FE00F4027
:00000001FF
