:020000040000FA
:04000000EBEF0AF028
:1008000000414C41524D41204445534143544956C7
:1008100041444100414C41524D41204143544956CD
:1008200041444100414C41524D413A0053463A2027
:100830000053493A200053543A20004F4E200025DF
:1008400078200025783A004F4646004F4E00257824
:1008500000000001D2BF2FEF04F031EF04F032EFBF
:1008600004F0D393D2BF3FEF04F0D25106E1D1059B
:10087000D8B03DEF04F03FEF04F045EF04F0000E78
:10088000346E010E336E49EF04F0D1C033F0D2C0A4
:1008900034F0CFC035F0D0C036F0D3A952EF04F019
:1008A00054EF04F058EF04F0FE0E3526FF0E36220A
:1008B0001EC037F01FC038F020C039F021C03AF018
:1008C00022C03BF023C03CF024C03DF025C03EF0E8
:1008D000000E406E1F0E3F6E000E01011F6F24EFD1
:1008E00005F03F06D8A040060F0E3714416E426A4D
:1008F00042BE84EF04F0425009E10A0E415CD8A0E8
:1009000084EF04F086EF04F08EEF04F0570E4124DC
:10091000416E000E4220426E94EF04F0300E4124EE
:10092000416E000E4220426EBF0E276EFF0E286EF3
:100930002650296E2A6A2750292628502A222A5012
:100940000AE11A0E295CD8A0A8EF04F0ABEF04F07E
:10095000010EACEF04F0000E2F6E306A2F503010F5
:10096000D8B4B5EF04F0B7EF04F0E7EF04F09F0E52
:10097000276EFF0E286E200E4110296E000E4210C9
:100980002A6E2750292628502A222A500AE11A0EB8
:10099000295CD8A0CEEF04F0D1EF04F0010ED2EF25
:1009A00004F0000E316E326A31503210D8B4DBEFF1
:1009B00004F0DDEF04F0E7EF04F041C007F042C0BF
:1009C00008F04DEC0BF007C041F008C042F0000EFB
:1009D0003F24D96E010E4020DA6E41C0DFFF33069E
:1009E000D8A034063506D8A0360637C027F038C060
:1009F00028F039C029F03AC02AF03BC02BF03CC0A7
:100A00002CF03DC02DF03EC02EF0050E11EF05F08C
:100A1000D8902E322D322C322B322A3229322832E3
:100A20002732E82E08EF05F027C037F028C038F04D
:100A300029C039F02AC03AF02BC03BF02CC03CF062
:100A40002DC03DF02EC03EF040BE30EF05F04050CE
:100A500009E1020E3F5CD8A030EF05F032EF05F05F
:100A600063EF05F03750381039103A103B103C1046
:100A70003D103E10D8A43FEF05F041EF05F071EFB7
:100A800004F034BE4EEF05F0345006E13304D8B024
:100A90004CEF05F04EEF05F071EF04F036BE59EF64
:100AA00005F0365008E13504D8A059EF05F05BEFAA
:100AB00005F063EF05F00001D3B361EF05F063EFDC
:100AC00005F071EF04F00001D3A969EF05F06BEFB9
:100AD00005F081EF05F03F06D8A04006000E3F2448
:100AE000D96E010E4020DA6E26C0DFFF3F06D8A087
:100AF0004006000E3F24D96E010E4020DA6E300E03
:100B0000DF6E1CC011F01DC012F0000E3F24136EEA
:100B1000010E4020146E35C015F036C016F041ECC1
:100B20000AF011C01CF012C01DF01200050E0001E9
:100B3000966F20EEB9F010EE8EF0060EDBCFE3FFDD
:100B4000E806FCE2720ED36E60EC0CF0BFEC0DF028
:100B5000B2EC0DF0949CAC9CAC8AAC98AC94B8967A
:100B6000AB8E0C0EAF6E0F0EC1129282000E896E0C
:100B7000110E926E80B2BFEF05F0C3EF05F05E6A12
:100B80005E2AC4EF05F05E6A5E500001976F986BB5
:100B90000F0EC1129282000E896E110E926E80B2FB
:100BA000D4EF05F0D8EF05F05E6A5E2AD9EF05F0C4
:100BB0005E6A5E500001C06FC16BC005C111D8A450
:100BC000E4EF05F0E6EF05F0E6EF06F09705981183
:100BD000D8A4EDEF05F0EFEF05F0F1EF05F0F7EC3D
:100BE0000BF0000E0001986F000E976F000E1BECCB
:100BF0000CF0D6EC0DF0010E026EF40E016ED2EC8C
:100C00000BF03F0E0001E515E56FE66B700E606FAF
:100C1000000E616F3F0E626F080E636FE9C064F0F3
:100C2000EAC065F0A9EC0BF07A0E0001606F000ECF
:100C3000616F430E626F080E636FE7C064F0E8C037
:100C400065F0A9EC0BF0840E0001606F000E616F7F
:100C50004E0E626F080E636FE5C064F0E6C065F08B
:100C6000A9EC0BF0030E7CEC0BF0D6EC0DF0B6EF1C
:100C700006F09DEC08F0C8EF05F0E6BF42EF06F085
:100C800044EF06F056EF06F0E6BF52EF06F0E651ED
:100C900007E1140EE55DD8B050EF06F052EF06F014
:100CA00056EF06F05DEC09F0C8EF05F0DDEC07F05B
:100CB000C8EF05F0E6BF5FEF06F061EF06F056EF14
:100CC00006F0E6BF6FEF06F0E65107E1140EE55DB2
:100CD000D8B06DEF06F06FEF06F056EF06F052EF6A
:100CE00006F0E6BF76EF06F078EF06F056EF06F076
:100CF000E6BF86EF06F0E65107E1140EE55DD8B0D9
:100D000084EF06F086EF06F056EF06F052EF06F09D
:100D1000E6BF8DEF06F08FEF06F056EF06F0E6BF68
:100D20009DEF06F0E65107E1140EE55DD8B09BEFAC
:100D300006F09DEF06F056EF06F052EF06F0E6BF24
:100D4000A4EF06F0A6EF06F056EF06F0E6BFB4EF0C
:100D500006F0E65107E1140EE55DD8B0B2EF06F0FB
:100D6000B4EF06F056EF06F052EF06F08E0E0001DB
:100D7000E325D96E000EE421DA6EDF505E6E5F6A05
:100D80005F50000AD8B4C7EF06F0F1EF06F05E50EE
:100D9000460AD8B49FEF06F00B0AD8B43DEF06F030
:100DA0001E0AD8B439EF06F0070AD8B45AEF06F095
:100DB000030AD8B471EF06F0240AD8B439EF06F06C
:100DC000070AD8B488EF06F0F1EF06F06FEC0DF0EB
:100DD000F4EC0DF0000E0001986F010E976FC8EF54
:100DE00005F0C8EF05F000EF00F045C0D9FF46C0A0
:100DF000DAFFDECFF6FFDDCFF7FF0800F550250A5A
:100E0000D8A405EF07F007EF07F0C1EF07F045C0E2
:100E1000D9FF46C0DAFFDE2A000EDD22000E0001F7
:100E2000D06F000ECF6FCFC0D3F0D0C0D4F0D16957
:100E3000D26945C0D9FF46C0DAFFDECFF6FFDDCF6D
:100E4000F7FF0800F550780AD8B429EF07F02BEF28
:100E500007F03DEF07F045C0D9FF46C0DAFFDECF0F
:100E6000F6FFDDCFF7FF0800F550580AD8A43BEF96
:100E700007F03DEF07F08BEF07F045C0D9FF46C004
:100E8000DAFFDECFF6FFDDCFF7FF0800F5CF55F034
:100E900045C0D9FF46C0DAFFDE2A000EDD2247C07A
:100EA000D9FF48C0DAFFDFCF49F0020EDE26DFCFE0
:100EB0004AF0000EDD2249C0D9FF4AC0DAFFDECF7A
:100EC0004BF0DDCF4CF04BC04DF04CC04EF04F6AB4
:100ED000506A516A526A536A546A43C01CF044C053
:100EE0001DF04DC01EF04EC01FF04FC020F050C08E
:100EF00021F051C022F052C023F053C024F054C05E
:100F000025F055C026F029EC04F01CC043F01DC0AC
:100F100044F0DCEF07F045C0D9FF46C0DAFFDECF72
:100F2000F6FFDDCFF7FF0800F550250AD8A49BEFA8
:100F300007F09DEF07F0B4EF07F045C0D9FF46C0BA
:100F4000DAFFDE2A000EDD22000E026E250E016E93
:100F500043C003F044C004F0DCEC09F0000E446E22
:100F6000010E436EDCEF07F045C0D9FF46C0DAFF43
:100F7000DE2A000EDD22000E446E000E436EDCEF12
:100F800007F045C0D9FF46C0DAFFDECFF6FFDDCF60
:100F9000F7FF0800F550016E026A43C003F044C039
:100FA00004F0DCEC09F045C0D9FF46C0DAFFDE2AC8
:100FB000000EDD22AEEF07F012000F0EC16E92841C
:100FC000928692889490949294948B908B928B9426
:100FD000000E0A6E310E0B6E080E0C6E020EA4ECA3
:100FE0000AF080A4F6EF07F0F8EF07F005EF08F03D
:100FF0008B80000E0A6E3B0E0B6E080E0C6E060EFA
:10100000A4EC0AF0848012EF08F08B908490000E1C
:101010000A6E470E0B6E080E0C6E060EA4EC0AF05C
:10102000000E0E6E000E0A6E360E0B6E080E0C6E63
:10103000030EA4EC0AF080A620EF08F022EF08F0DF
:101040002FEF08F08B828480000E0A6E3B0E0B6E31
:10105000080E0C6E060EA4EC0AF03CEF08F08B9222
:101060008490000E0A6E470E0B6E080E0C6E060E74
:10107000A4EC0AF0000E0F6E000E0A6E2C0E0B6E22
:10108000080E0C6E040EA4EC0AF080A84AEF08F0DB
:101090004CEF08F059EF08F08B848480000E0A6E44
:1010A0003B0E0B6E080E0C6E060EA4EC0AF064EFFD
:1010B00008F08B94000E0A6E470E0B6E080E0C6E35
:1010C000060EA4EC0AF0849080B469EF08F06BEF90
:1010D00008F079EF08F080B670EF08F072EF08F0D2
:1010E00079EF08F080A877EF08F079EF08F09CEF2F
:1010F00008F0000E116E000E106EACA282EF08F028
:1011000084EF08F07DEF08F0200E1024D96E010E58
:101110001120DA6EDF50AD6E104A112A11BE9AEF1F
:1011200008F0115009E1270E105CD8A09AEF08F0E2
:101130009CEF08F07DEF08F012000F0EC16E928454
:10114000928692889490949294948B908B928B94A4
:10115000000E0A6E310E0B6E080E0C6E020EA4EC21
:101160000AF080A4B6EF08F0B8EF08F0C5EF08F079
:101170008B80000E0A6E3B0E0B6E080E0C6E060E78
:10118000A4EC0AF08480D2EF08F08B908490000EDB
:101190000A6E470E0B6E080E0C6E060EA4EC0AF0DB
:1011A000000E0E6E000E0A6E360E0B6E080E0C6EE2
:1011B000030EA4EC0AF080A6E0EF08F0E2EF08F0DE
:1011C000EFEF08F08B828480000E0A6E3B0E0B6EF0
:1011D000080E0C6E060EA4EC0AF0FCEF08F08B92E1
:1011E0008490000E0A6E470E0B6E080E0C6E060EF3
:1011F000A4EC0AF0000E0F6E000E0A6E2C0E0B6EA1
:10120000080E0C6E040EA4EC0AF080A80AEF09F098
:101210000CEF09F019EF09F08B848480000E0A6E40
:101220003B0E0B6E080E0C6E060EA4EC0AF024EFBB
:1012300009F08B94000E0A6E470E0B6E080E0C6EB2
:10124000060EA4EC0AF0849080B429EF09F02BEF8D
:1012500009F039EF09F080B630EF09F032EF09F00C
:1012600039EF09F080A837EF09F039EF09F05CEFAA
:1012700009F0000E116E000E106EACA242EF09F0E4
:1012800044EF09F03DEF09F0200E1024D96E010E55
:101290001120DA6EDF50AD6E104A112A11BE5AEFDE
:1012A00009F0115009E1270E105CD8A05AEF09F09F
:1012B0005CEF09F03DEF09F012000F0EC16E928451
:1012C000928692889490949294948B908B928B9423
:1012D000000E0A6E310E0B6E080E0C6E020EA4ECA0
:1012E0000AF080A476EF09F078EF09F084EF09F0B6
:1012F0008B80000E0A6E3B0E0B6E080E0C6E060EF7
:10130000A4EC0AF08EEF09F08B90000E0A6E470EE7
:101310000B6E080E0C6E060EA4EC0AF0000E0A6EA0
:10132000360E0B6E080E0C6E030EA4EC0AF080A6AF
:101330009CEF09F09EEF09F0AAEF09F08B82000EF6
:101340000A6E3B0E0B6E080E0C6E060EA4EC0AF035
:10135000B4EF09F08B92000E0A6E470E0B6E080E6A
:101360000C6E060EA4EC0AF0000E0A6E2C0E0B6E2C
:10137000080E0C6E040EA4EC0AF080A8C2EF09F06F
:10138000C4EF09F0D0EF09F08B84000E0A6E3B0E1B
:101390000B6E080E0C6E060EA4EC0AF0DBEF09F0E3
:1013A0008B94000E0A6E470E0B6E080E0C6E060E26
:1013B000A4EC0AF08490120003500410D8B4E3EFB8
:1013C00009F0E5EF09F0EEEF09F003500410D8A49E
:1013D000ECEF09F0EEEF09F0F3EF09F0015007EC44
:1013E0000EF040EF0AF020EE04F00350D92604502E
:1013F000DA22DE50DE10D8B400EF0AF002EF0AF075
:101400001DEF0AF020EE04F00350D9260450DA2232
:1014100010EE02F00350E1260450E222DE50E65CBA
:10142000E650800A096EDE50800A0958D8B01BEFDA
:101430000AF01DEF0AF040EF0AF020EE02F0035030
:10144000D9260450DA22DECF05F0DDCF06F003C046
:10145000D9FF04C0DAFFDECF07F0DDCF08F005507A
:101460000724D96E06500820DA6E01C0DFFF20EE97
:1014700002F00350D9260450DA22DE2A000EDD22C3
:1014800012000001D3A147EF0AF049EF0AF053EF31
:101490000AF013C00AF014C00BF011C00CF012C017
:1014A0000DF03EEC0CF016BE58EF0AF05AEF0AF0C1
:1014B00060EF0AF015C01AF016C01BF064EF0AF0D6
:1014C000000E1B6E000E1A6E000E196E000E186EC6
:1014D00076EF0AF0000E026E200E016E11C003F0CE
:1014E00012C004F0DCEC09F0184A192A1A50185CF2
:1014F0001950800A176E1B50800A1758D8A083EF26
:101500000AF085EF0AF06AEF0AF00001D3B18BEF21
:101510000AF08DEF0AF097EF0AF013C00AF014C03A
:101520000BF011C00CF012C00DF03EEC0CF013C02B
:1015300001F014C002F0F3EC0CF01A500124116E0B
:101540001B500220126E12000D6E0D04D8A4ABEFDA
:101550000AF0ADEF0AF0B4EF0AF00A500F0B800961
:10156000A4EC0DF0E4EF0AF0020E0D18D8A4BBEFC6
:101570000AF0BDEF0AF0C4EF0AF00A500F0BC009E1
:10158000A4EC0DF0E4EF0AF0030E0D18D8A4CBEF95
:101590000AF0CDEF0AF0D4EF0AF00A500F0B9409CD
:1015A000A4EC0DF0E4EF0AF0040E0D18D8A4DBEF64
:1015B0000AF0DDEF0AF0E4EF0AF00A500F0BD4094D
:1015C000A4EC0DF0E4EF0AF00BC008F00CC009F039
:1015D0000EEC0DF01200960EF66E1B0EF76E000E5E
:1015E000F86E01EE20F010EE15F00900F5CFEEFFD9
:1015F000E550E150FAE1520EF66E1A0EF76E000E4B
:10160000F86E00EE99F010EE2FF00900F5CFEEFF26
:10161000E550E150FAE101EE00F0200EEE6AE80636
:10162000FDE100EEC8F02D0EEE6AE806FDE1000EC9
:10163000F86E000196EF05F058C05CF059C05DF0FF
:10164000000E0001CE6F000ECD6F3AEF0BF056C0CA
:1016500043F057C044F05C0E456E000E466E5AC013
:1016600047F05BC048F0F5EC06F043500001CD2791
:101670004450CE235CC0F6FF5DC0F7FF0800F55074
:101680000009D8A446EF0BF048EF0BF027EF0BF062
:10169000CDC056F0CEC057F012009F0E096EFF0E5F
:1016A0000A6E07C00BF008C00CF009500B260A5058
:1016B0000C220C500AE11A0E0B5CD8A062EF0BF062
:1016C00065EF0BF0010E66EF0BF0000E0D6E0E6A6B
:1016D0000D500E10D8B46FEF0BF071EF0BF077EFE9
:1016E0000BF05F0E0714076E086A7BEF0BF007C064
:1016F00007F008C008F01200046ED00E41EC0DF0A7
:10170000045085EC0DF0D10E58EC0DF0000E9EEC5F
:101710000CF0036E03500001E36FE46B000E9EECCF
:101720000CF0036E03500001E16FE26B000E9EECC3
:101730000CF0036E03500001DF6FE06B010E9EECB6
:101740000CF0036E03500001DD6FDE6BD6EC0DF084
:101750001200640E0001686F000E696F60C06AF0CD
:1017600061C06BF0000E6D6F000E6C6F000E6F6F3E
:10177000000E6E6F6A0E566E000E576E62C058F005
:1017800063C059F0680E5A6E000E5B6E1CEC0BF0D5
:1017900000016C516025D96E6D516121DA6E000E29
:1017A000DF6E1200000E046E000E036EEBEF0BF006
:1017B000000E066E000E056E054A062A065009E167
:1017C000A50E055CD8A0E7EF0BF0E9EF0BF0DCEF1E
:1017D0000BF0034A042A0350015C04500258D8B0AD
:1017E000F4EF0BF0F6EF0BF0D8EF0BF01200010E58
:1017F0000A6E140E0B6E080E0C6E020EA4EC0AF0AC
:10180000000E026E640E016ED2EC0BF0F4EC0DF0E3
:101810000C0E0A6E240E0B6E080E0C6E000EA4EC5D
:101820000AF0130E0A6E4B0E0B6E080E0C6E000EB5
:10183000A4EC0AF01200046ED00E41EC0DF004503E
:1018400085EC0DF0D10E58EC0DF0000E9EEC0CF076
:10185000036E03500001E96FEA6B000E9EEC0CF082
:10186000036E03500001E76FE86B010E9EEC0CF075
:10187000036E03500001E56FE66B1200000E106E60
:10188000000E0F6E4FEF0CF00EC001F0026A0CC09C
:1018900003F00DC004F0DCEC09F00F4A102A0F50E1
:1018A0000A24D96E10500B20DA6EDF500E6E0E50E7
:1018B000D8A45DEF0CF05FEF0CF044EF0CF01200D9
:1018C000000E966E000E956E000E026E140E016EE6
:1018D000D2EC0BF0380EA4EC0DF00C0EA4EC0DF0D5
:1018E000060EA4EC0DF0010EA4EC0DF0000E026E3D
:1018F000030E016ED2EC0BF0800EA4EC0DF0120082
:101900009F0E036EFF0E046E200E0110056E000E7A
:101910000210066E035005260450062206500AE106
:101920001A0E055CD8A097EF0CF09AEF0CF0010EA0
:101930009BEF0CF0000E016E026A1200016EC5866C
:10194000C7A0A5EF0CF0A7EF0CF0A0EF0CF0C9CFEB
:1019500002F00150D8A4AFEF0CF0B1EF0CF0B5EFEE
:101960000CF0EAEC0DF0B7EF0CF0E0EC0DF0FEEC53
:101970000DF0025012009F0E036EFF0E046E01C0A8
:1019800005F002C006F0035005260450062206505A
:101990000AE11A0E055CD8A0D0EF0CF0D3EF0CF0E2
:1019A000010ED4EF0CF0000E016E026A1200BF0EA1
:1019B000036EFF0E046E01C005F002C006F0035076
:1019C00005260450062206500AE11A0E055CD8A02E
:1019D000ECEF0CF0EFEF0CF0010EF0EF0CF0000E5E
:1019E000016E026A120001C003F002C004F0FBEFB6
:1019F0000CF0014A022A01C0D9FF02C0DAFFDF5011
:101A0000D8A405EF0DF007EF0DF0F9EF0CF003503F
:101A1000015C016E04500258026E12001AEF0DF0C4
:101A200008C0F6FF09C0F7FF0800F55096EC0DF06E
:101A3000084A092A08C0F6FF09C0F7FF0800F55058
:101A40000009D8A426EF0DF028EF0DF010EF0DF0EF
:101A500012000415000E0E0E0004000404041F0EF4
:101A6000040000040E1F0404040001001F04040409
:101A70000404534D5457744673010003020133327A
:011A80003134
:101A8200026EC580C5B048EF0DF04AEF0DF043EF8E
:101A92000DF09E96C7B650EF0DF052EF0DF054EFD9
:101AA2000DF057EF0DF0025085EC0DF01200026EB2
:101AB200C582C5B25FEF0DF061EF0DF05AEF0DF088
:101AC2009E96C7B667EF0DF069EF0DF06BEF0DF064
:101AD2006EEF0DF0025085EC0DF01200F4EC0DF0FB
:101AE200010E0A6E010E0B6E080E0C6E020EA4ECB5
:101AF2000AF0000E026E640E016ED2EC0BF08B90B7
:101B02008B928B9484901200016E01C0C9FFFEEC8F
:101B12000DF0C5AC8FEF0DF091EF0DF094EF0DF0DD
:101B2200010E95EF0DF0020E1200076E07C08CFF3A
:101B32008D828D8400F08D94000E026E030E016E74
:101B4200D2EC0BF01200076E07C08CFF8D928D84D1
:101B520000F08D94000E026E030E016ED2EC0BF0BB
:101B6200120093809382500EC76E280EC66E000E2E
:101B7200C56E130EC86E9D869E9612009268850EE3
:101B8200C26EC00EC16E920EC06E000EC46E000E0A
:101B9200C36E12006465746563746F20756E20698C
:091BA2006E747275736F200D0062
:101BAC00C584C5B4DCEF0DF0DEEF0DF0D7EF0DF012
:101BBC00C7501200C58AC588C5B8E7EF0DF0E9EF2C
:101BCC000DF0E2EF0DF01200C59AC588C5B8F1EF23
:101BDC000DF0F3EF0DF0ECEF0DF01200010EA4EC94
:101BEC000DF0000E026E030E016ED2EC0BF0120023
:101BFC009EA603EF0EF005EF0EF0FEEF0DF09E9695
:041C0C0012001200B0
:020000040020DA
:08000000FFFFFFFFFFFFFFFF00
:020000040030CA
:0E0000000009191EFF0181FF0FC00FE00F4025
:00000001FF
